{
  "contractName": "Lottery2",
  "abi": [
    {
      "inputs": [],
      "stateMutability": "nonpayable",
      "type": "constructor"
    },
    {
      "stateMutability": "payable",
      "type": "fallback",
      "payable": true
    },
    {
      "inputs": [],
      "name": "lotteryPrice",
      "outputs": [
        {
          "internalType": "uint256",
          "name": "",
          "type": "uint256"
        }
      ],
      "stateMutability": "view",
      "type": "function",
      "constant": true
    },
    {
      "inputs": [],
      "name": "manager",
      "outputs": [
        {
          "internalType": "address",
          "name": "",
          "type": "address"
        }
      ],
      "stateMutability": "view",
      "type": "function",
      "constant": true
    },
    {
      "inputs": [
        {
          "internalType": "uint256",
          "name": "",
          "type": "uint256"
        }
      ],
      "name": "persons",
      "outputs": [
        {
          "internalType": "address",
          "name": "",
          "type": "address"
        }
      ],
      "stateMutability": "view",
      "type": "function",
      "constant": true
    },
    {
      "stateMutability": "payable",
      "type": "receive",
      "payable": true
    },
    {
      "inputs": [],
      "name": "takeLottery",
      "outputs": [],
      "stateMutability": "payable",
      "type": "function",
      "payable": true
    },
    {
      "inputs": [
        {
          "internalType": "address",
          "name": "_person",
          "type": "address"
        }
      ],
      "name": "isParticipated",
      "outputs": [
        {
          "internalType": "bool",
          "name": "",
          "type": "bool"
        }
      ],
      "stateMutability": "view",
      "type": "function",
      "constant": true
    },
    {
      "inputs": [],
      "name": "totalPersons",
      "outputs": [
        {
          "internalType": "uint256",
          "name": "",
          "type": "uint256"
        }
      ],
      "stateMutability": "view",
      "type": "function",
      "constant": true
    },
    {
      "inputs": [],
      "name": "getPrizeBalance",
      "outputs": [
        {
          "internalType": "uint256",
          "name": "",
          "type": "uint256"
        }
      ],
      "stateMutability": "view",
      "type": "function",
      "constant": true
    },
    {
      "inputs": [],
      "name": "declearWinner",
      "outputs": [
        {
          "internalType": "address",
          "name": "",
          "type": "address"
        }
      ],
      "stateMutability": "payable",
      "type": "function",
      "payable": true
    }
  ],
  "bytecode": "0x60a060405234801561001057600080fd5b503373ffffffffffffffffffffffffffffffffffffffff1660808173ffffffffffffffffffffffffffffffffffffffff1681525050608051610b6d61006760003960008181610296015261046a0152610b6d6000f3fe60806040526004361061007f5760003560e01c8063cf5b8d4b1161004e578063cf5b8d4b14610128578063dbea52d814610165578063e52998e314610190578063f621944c146101bb5761008e565b80634200b06714610098578063481c6a75146100b6578063762ff712146100e1578063a2f9eac6146100eb5761008e565b3661008e5761008c6101e6565b005b6100966101e6565b005b6100a0610292565b6040516100ad91906106c7565b60405180910390f35b3480156100c257600080fd5b506100cb610468565b6040516100d891906106c7565b60405180910390f35b6100e96101e6565b005b3480156100f757600080fd5b50610112600480360381019061010d919061071d565b61048c565b60405161011f91906106c7565b60405180910390f35b34801561013457600080fd5b5061014f600480360381019061014a9190610776565b6104cb565b60405161015c91906107be565b60405180910390f35b34801561017157600080fd5b5061017a610579565b60405161018791906107e8565b60405180910390f35b34801561019c57600080fd5b506101a5610582565b6040516101b291906107e8565b60405180910390f35b3480156101c757600080fd5b506101d061058e565b6040516101dd91906107e8565b60405180910390f35b64012a05f200341461022d576040517f08c379a000000000000000000000000000000000000000000000000000000000815260040161022490610860565b60405180910390fd5b6000339080600181540180825580915050600190039060005260206000200160009091909190916101000a81548173ffffffffffffffffffffffffffffffffffffffff021916908373ffffffffffffffffffffffffffffffffffffffff160217905550565b60007f000000000000000000000000000000000000000000000000000000000000000073ffffffffffffffffffffffffffffffffffffffff163373ffffffffffffffffffffffffffffffffffffffff1614610322576040517f08c379a0000000000000000000000000000000000000000000000000000000008152600401610319906108f2565b60405180910390fd5b60036000805490501461036a576040517f08c379a000000000000000000000000000000000000000000000000000000000815260040161036190610984565b60405180910390fd5b600080610375610596565b81548110610386576103856109a4565b5b9060005260206000200160009054906101000a900473ffffffffffffffffffffffffffffffffffffffff1690508073ffffffffffffffffffffffffffffffffffffffff166108fc6103d561058e565b9081150290604051600060405180830381858888f19350505050158015610400573d6000803e3d6000fd5b50600067ffffffffffffffff81111561041c5761041b6109d3565b5b60405190808252806020026020018201604052801561044a5781602001602082028036833780820191505090505b50600090805190602001906104609291906105df565b508091505090565b7f000000000000000000000000000000000000000000000000000000000000000081565b6000818154811061049c57600080fd5b906000526020600020016000915054906101000a900473ffffffffffffffffffffffffffffffffffffffff1681565b600080600090505b60008054905081101561056e578273ffffffffffffffffffffffffffffffffffffffff166000828154811061050b5761050a6109a4565b5b9060005260206000200160009054906101000a900473ffffffffffffffffffffffffffffffffffffffff1673ffffffffffffffffffffffffffffffffffffffff160361055b576001915050610574565b808061056690610a31565b9150506104d3565b50600090505b919050565b64012a05f20081565b60008080549050905090565b600047905090565b6000808054905044426000805490506040516020016105b793929190610a9a565b6040516020818303038152906040528051906020012060001c6105da9190610b06565b905090565b828054828255906000526020600020908101928215610658579160200282015b828111156106575782518260006101000a81548173ffffffffffffffffffffffffffffffffffffffff021916908373ffffffffffffffffffffffffffffffffffffffff160217905550916020019190600101906105ff565b5b5090506106659190610669565b5090565b5b8082111561068257600081600090555060010161066a565b5090565b600073ffffffffffffffffffffffffffffffffffffffff82169050919050565b60006106b182610686565b9050919050565b6106c1816106a6565b82525050565b60006020820190506106dc60008301846106b8565b92915050565b600080fd5b6000819050919050565b6106fa816106e7565b811461070557600080fd5b50565b600081359050610717816106f1565b92915050565b600060208284031215610733576107326106e2565b5b600061074184828501610708565b91505092915050565b610753816106a6565b811461075e57600080fd5b50565b6000813590506107708161074a565b92915050565b60006020828403121561078c5761078b6106e2565b5b600061079a84828501610761565b91505092915050565b60008115159050919050565b6107b8816107a3565b82525050565b60006020820190506107d360008301846107af565b92915050565b6107e2816106e7565b82525050565b60006020820190506107fd60008301846107d9565b92915050565b600082825260208201905092915050565b7f746865207469636b657420707269636520697320352067776569000000000000600082015250565b600061084a601a83610803565b915061085582610814565b602082019050919050565b600060208201905081810360008301526108798161083d565b9050919050565b7f4f6e6c7920746865206d616e616765722063616e206465636c6561722074686560008201527f2077696e6e657200000000000000000000000000000000000000000000000000602082015250565b60006108dc602783610803565b91506108e782610880565b604082019050919050565b6000602082019050818103600083015261090b816108cf565b9050919050565b7f5061727469636970616e74732073686f756c642062652067726561746572207460008201527f68656e2033000000000000000000000000000000000000000000000000000000602082015250565b600061096e602583610803565b915061097982610912565b604082019050919050565b6000602082019050818103600083015261099d81610961565b9050919050565b7f4e487b7100000000000000000000000000000000000000000000000000000000600052603260045260246000fd5b7f4e487b7100000000000000000000000000000000000000000000000000000000600052604160045260246000fd5b7f4e487b7100000000000000000000000000000000000000000000000000000000600052601160045260246000fd5b6000610a3c826106e7565b91507fffffffffffffffffffffffffffffffffffffffffffffffffffffffffffffffff8203610a6e57610a6d610a02565b5b600182019050919050565b6000819050919050565b610a94610a8f826106e7565b610a79565b82525050565b6000610aa68286610a83565b602082019150610ab68285610a83565b602082019150610ac68284610a83565b602082019150819050949350505050565b7f4e487b7100000000000000000000000000000000000000000000000000000000600052601260045260246000fd5b6000610b11826106e7565b9150610b1c836106e7565b925082610b2c57610b2b610ad7565b5b82820690509291505056fea264697066735822122001ae2ab5c479d71155edc470af1ca28a1e7325e4d9f18fe753517447de49428164736f6c63430008120033",
  "immutableReferences": {
    "3": [
      {
        "length": 32,
        "start": 662
      },
      {
        "length": 32,
        "start": 1130
      }
    ]
  },
  "source": "// SPDX-License-Identifier: MIT\npragma solidity ^0.8.0;\n\ncontract Lottery2 {\n    address public immutable manager;\n    address[] public persons;\n    uint256 public constant lotteryPrice = 5 gwei;\n\n    constructor() {\n        manager = msg.sender;\n    }\n\n    function takeLottery() public payable {\n        require(msg.value == lotteryPrice, \"the ticket price is 5 gwei\");\n        persons.push(payable(msg.sender));\n    }\n\n    function isParticipated(address _person) public view returns (bool) {\n        for (uint i = 0; i < persons.length; i++) {\n            if (persons[i] == _person) {\n                return true;\n            }\n        }\n        return false;\n    }\n\n    function totalPersons() public view returns (uint) {\n        return persons.length;\n    }\n\n    receive() external payable {\n        takeLottery();\n    }\n\n    fallback() external payable {\n        takeLottery();\n    }\n\n    function generateRandom() internal view returns (uint256) {\n        return\n            uint(\n                keccak256(\n                    abi.encodePacked(\n                        block.prevrandao,\n                        block.timestamp,\n                        persons.length\n                    )\n                )\n            ) % persons.length;\n    }\n\n    function getPrizeBalance() public view returns (uint256) {\n        return address(this).balance;\n    }\n\n    function declearWinner() public payable returns (address) {\n        require(\n            msg.sender == manager,\n            \"Only the manager can declear the winner\"\n        );\n        require(persons.length == 3, \"Participants should be greater then 3\");\n        address payable winner = payable(persons[generateRandom()]);\n        winner.transfer(getPrizeBalance());\n        persons = new address payable[](0);\n        return winner;\n    }\n}\n",
  "sourcePath": "/Users/aamir/Documents/vs codes/blockchain development/dapps/lottery/contracts/Lottery2.sol",
  "compiler": {
    "name": "solc",
    "version": "0.8.18+commit.87f61d96.Emscripten.clang"
  },
  "schemaVersion": "3.4.12",
  "updatedAt": "2023-08-18T11:04:31.898Z",
  "networkType": "ethereum",
  "devdoc": {
    "kind": "dev",
    "methods": {},
    "version": 1
  },
  "userdoc": {
    "kind": "user",
    "methods": {},
    "version": 1
  }
}