{
  "contractName": "Lottery",
  "abi": [
    {
      "inputs": [],
      "stateMutability": "nonpayable",
      "type": "constructor"
    },
    {
      "stateMutability": "payable",
      "type": "fallback",
      "payable": true
    },
    {
      "inputs": [],
      "name": "lotteryPrice",
      "outputs": [
        {
          "internalType": "uint256",
          "name": "",
          "type": "uint256"
        }
      ],
      "stateMutability": "view",
      "type": "function",
      "constant": true
    },
    {
      "inputs": [],
      "name": "manager",
      "outputs": [
        {
          "internalType": "address",
          "name": "",
          "type": "address"
        }
      ],
      "stateMutability": "view",
      "type": "function",
      "constant": true
    },
    {
      "inputs": [
        {
          "internalType": "uint256",
          "name": "",
          "type": "uint256"
        }
      ],
      "name": "persons",
      "outputs": [
        {
          "internalType": "address payable",
          "name": "",
          "type": "address"
        }
      ],
      "stateMutability": "view",
      "type": "function",
      "constant": true
    },
    {
      "stateMutability": "payable",
      "type": "receive",
      "payable": true
    },
    {
      "inputs": [],
      "name": "takeLottery",
      "outputs": [],
      "stateMutability": "payable",
      "type": "function",
      "payable": true
    },
    {
      "inputs": [],
      "name": "getPrizeBalance",
      "outputs": [
        {
          "internalType": "uint256",
          "name": "",
          "type": "uint256"
        }
      ],
      "stateMutability": "view",
      "type": "function",
      "constant": true
    },
    {
      "inputs": [],
      "name": "declearWinner",
      "outputs": [
        {
          "internalType": "address",
          "name": "",
          "type": "address"
        }
      ],
      "stateMutability": "payable",
      "type": "function",
      "payable": true
    }
  ],
  "bytecode": "0x60a060405234801561001057600080fd5b503373ffffffffffffffffffffffffffffffffffffffff1660808173ffffffffffffffffffffffffffffffffffffffff168152505060805161095b6100676000396000818161020801526103dc015261095b6000f3fe6080604052600436106100595760003560e01c80634200b06714610072578063481c6a7514610090578063762ff712146100bb578063a2f9eac6146100c5578063dbea52d814610102578063f621944c1461012d57610068565b3661006857610066610158565b005b610070610158565b005b61007a610204565b604051610087919061057f565b60405180910390f35b34801561009c57600080fd5b506100a56103da565b6040516100b2919061057f565b60405180910390f35b6100c3610158565b005b3480156100d157600080fd5b506100ec60048036038101906100e791906105d5565b6103fe565b6040516100f99190610623565b60405180910390f35b34801561010e57600080fd5b5061011761043d565b604051610124919061064d565b60405180910390f35b34801561013957600080fd5b50610142610446565b60405161014f919061064d565b60405180910390f35b64012a05f200341461019f576040517f08c379a0000000000000000000000000000000000000000000000000000000008152600401610196906106c5565b60405180910390fd5b6000339080600181540180825580915050600190039060005260206000200160009091909190916101000a81548173ffffffffffffffffffffffffffffffffffffffff021916908373ffffffffffffffffffffffffffffffffffffffff160217905550565b60007f000000000000000000000000000000000000000000000000000000000000000073ffffffffffffffffffffffffffffffffffffffff163373ffffffffffffffffffffffffffffffffffffffff1614610294576040517f08c379a000000000000000000000000000000000000000000000000000000000815260040161028b90610757565b60405180910390fd5b6003600080549050146102dc576040517f08c379a00000000000000000000000000000000000000000000000000000000081526004016102d3906107e9565b60405180910390fd5b6000806102e761044e565b815481106102f8576102f7610809565b5b9060005260206000200160009054906101000a900473ffffffffffffffffffffffffffffffffffffffff1690508073ffffffffffffffffffffffffffffffffffffffff166108fc610347610446565b9081150290604051600060405180830381858888f19350505050158015610372573d6000803e3d6000fd5b50600067ffffffffffffffff81111561038e5761038d610838565b5b6040519080825280602002602001820160405280156103bc5781602001602082028036833780820191505090505b50600090805190602001906103d2929190610497565b508091505090565b7f000000000000000000000000000000000000000000000000000000000000000081565b6000818154811061040e57600080fd5b906000526020600020016000915054906101000a900473ffffffffffffffffffffffffffffffffffffffff1681565b64012a05f20081565b600047905090565b60008080549050444260008054905060405160200161046f93929190610888565b6040516020818303038152906040528051906020012060001c61049291906108f4565b905090565b828054828255906000526020600020908101928215610510579160200282015b8281111561050f5782518260006101000a81548173ffffffffffffffffffffffffffffffffffffffff021916908373ffffffffffffffffffffffffffffffffffffffff160217905550916020019190600101906104b7565b5b50905061051d9190610521565b5090565b5b8082111561053a576000816000905550600101610522565b5090565b600073ffffffffffffffffffffffffffffffffffffffff82169050919050565b60006105698261053e565b9050919050565b6105798161055e565b82525050565b60006020820190506105946000830184610570565b92915050565b600080fd5b6000819050919050565b6105b28161059f565b81146105bd57600080fd5b50565b6000813590506105cf816105a9565b92915050565b6000602082840312156105eb576105ea61059a565b5b60006105f9848285016105c0565b91505092915050565b600061060d8261053e565b9050919050565b61061d81610602565b82525050565b60006020820190506106386000830184610614565b92915050565b6106478161059f565b82525050565b6000602082019050610662600083018461063e565b92915050565b600082825260208201905092915050565b7f746865207469636b657420707269636520697320352067776569000000000000600082015250565b60006106af601a83610668565b91506106ba82610679565b602082019050919050565b600060208201905081810360008301526106de816106a2565b9050919050565b7f4f6e6c7920746865206d616e616765722063616e206465636c6561722074686560008201527f2077696e6e657200000000000000000000000000000000000000000000000000602082015250565b6000610741602783610668565b915061074c826106e5565b604082019050919050565b6000602082019050818103600083015261077081610734565b9050919050565b7f5061727469636970616e74732073686f756c642062652067726561746572207460008201527f68656e2033000000000000000000000000000000000000000000000000000000602082015250565b60006107d3602583610668565b91506107de82610777565b604082019050919050565b60006020820190508181036000830152610802816107c6565b9050919050565b7f4e487b7100000000000000000000000000000000000000000000000000000000600052603260045260246000fd5b7f4e487b7100000000000000000000000000000000000000000000000000000000600052604160045260246000fd5b6000819050919050565b61088261087d8261059f565b610867565b82525050565b60006108948286610871565b6020820191506108a48285610871565b6020820191506108b48284610871565b602082019150819050949350505050565b7f4e487b7100000000000000000000000000000000000000000000000000000000600052601260045260246000fd5b60006108ff8261059f565b915061090a8361059f565b92508261091a576109196108c5565b5b82820690509291505056fea2646970667358221220d7162ad906e10c6a5b52ef8e030df2a45b2522d5dcf5a3eb2174a3d381883b1064736f6c63430008120033",
  "immutableReferences": {
    "3": [
      {
        "length": 32,
        "start": 520
      },
      {
        "length": 32,
        "start": 988
      }
    ]
  },
  "source": "// SPDX-License-Identifier: MIT\npragma solidity ^0.8.0;\n\ncontract Lottery {\n    address public immutable manager;\n    address payable[] public persons;\n    uint256 public constant lotteryPrice = 5 gwei;\n\n    constructor() {\n        manager = msg.sender;\n    }\n\n    function takeLottery() public payable {\n        require(msg.value == lotteryPrice, \"the ticket price is 5 gwei\");\n        persons.push(payable(msg.sender));\n    }\n\n    receive() external payable {\n        takeLottery();\n    }\n\n    fallback() external payable {\n        takeLottery();\n    }\n\n    function generateRandom() internal view returns (uint256) {\n        return\n            uint(\n                keccak256(\n                    abi.encodePacked(\n                        block.difficulty,\n                        block.timestamp,\n                        persons.length\n                    )\n                )\n            ) % persons.length;\n    }\n\n    function getPrizeBalance() public view returns (uint256) {\n        return address(this).balance;\n    }\n\n    function declearWinner() public payable returns (address) {\n        require(\n            msg.sender == manager,\n            \"Only the manager can declear the winner\"\n        );\n        require(persons.length == 3, \"Participants should be greater then 3\");\n        address payable winner = persons[generateRandom()];\n        winner.transfer(getPrizeBalance());\n        persons = new address payable[](0);\n        return winner;\n    }\n}\n",
  "sourcePath": "/Users/aamir/Documents/vs codes/blockchain development/dapps/lottery/contracts/Lottery.sol",
  "compiler": {
    "name": "solc",
    "version": "0.8.18+commit.87f61d96.Emscripten.clang"
  },
  "schemaVersion": "3.4.12",
  "updatedAt": "2023-08-15T07:00:40.592Z",
  "networkType": "ethereum",
  "devdoc": {
    "kind": "dev",
    "methods": {},
    "version": 1
  },
  "userdoc": {
    "kind": "user",
    "methods": {},
    "version": 1
  }
}