{
  "contractName": "Lottery2",
  "abi": [
    {
      "inputs": [],
      "stateMutability": "nonpayable",
      "type": "constructor"
    },
    {
      "stateMutability": "payable",
      "type": "fallback",
      "payable": true
    },
    {
      "inputs": [],
      "name": "lotteryPrice",
      "outputs": [
        {
          "internalType": "uint256",
          "name": "",
          "type": "uint256"
        }
      ],
      "stateMutability": "view",
      "type": "function",
      "constant": true
    },
    {
      "inputs": [],
      "name": "manager",
      "outputs": [
        {
          "internalType": "address",
          "name": "",
          "type": "address"
        }
      ],
      "stateMutability": "view",
      "type": "function",
      "constant": true
    },
    {
      "inputs": [
        {
          "internalType": "uint256",
          "name": "",
          "type": "uint256"
        }
      ],
      "name": "persons",
      "outputs": [
        {
          "internalType": "address",
          "name": "",
          "type": "address"
        }
      ],
      "stateMutability": "view",
      "type": "function",
      "constant": true
    },
    {
      "inputs": [],
      "name": "winner",
      "outputs": [
        {
          "internalType": "address",
          "name": "",
          "type": "address"
        }
      ],
      "stateMutability": "view",
      "type": "function",
      "constant": true
    },
    {
      "stateMutability": "payable",
      "type": "receive",
      "payable": true
    },
    {
      "inputs": [],
      "name": "takeLottery",
      "outputs": [],
      "stateMutability": "payable",
      "type": "function",
      "payable": true
    },
    {
      "inputs": [
        {
          "internalType": "address",
          "name": "_person",
          "type": "address"
        }
      ],
      "name": "isParticipated",
      "outputs": [
        {
          "internalType": "bool",
          "name": "",
          "type": "bool"
        }
      ],
      "stateMutability": "view",
      "type": "function",
      "constant": true
    },
    {
      "inputs": [],
      "name": "totalPersons",
      "outputs": [
        {
          "internalType": "uint256",
          "name": "",
          "type": "uint256"
        }
      ],
      "stateMutability": "view",
      "type": "function",
      "constant": true
    },
    {
      "inputs": [],
      "name": "getPrizeBalance",
      "outputs": [
        {
          "internalType": "uint256",
          "name": "",
          "type": "uint256"
        }
      ],
      "stateMutability": "view",
      "type": "function",
      "constant": true
    },
    {
      "inputs": [],
      "name": "declearWinner",
      "outputs": [],
      "stateMutability": "payable",
      "type": "function",
      "payable": true
    }
  ],
  "bytecode": "0x60a060405234801561001057600080fd5b503373ffffffffffffffffffffffffffffffffffffffff1660808173ffffffffffffffffffffffffffffffffffffffff1681525050608051610c0e610067600039600081816102b601526104e50152610c0e6000f3fe60806040526004361061008a5760003560e01c8063cf5b8d4b11610059578063cf5b8d4b1461011f578063dbea52d81461015c578063dfbf53ae14610187578063e52998e3146101b2578063f621944c146101dd57610099565b80634200b067146100a3578063481c6a75146100ad578063762ff712146100d8578063a2f9eac6146100e257610099565b3661009957610097610208565b005b6100a1610208565b005b6100ab6102b4565b005b3480156100b957600080fd5b506100c26104e3565b6040516100cf9190610768565b60405180910390f35b6100e0610208565b005b3480156100ee57600080fd5b50610109600480360381019061010491906107be565b610507565b6040516101169190610768565b60405180910390f35b34801561012b57600080fd5b5061014660048036038101906101419190610817565b610546565b604051610153919061085f565b60405180910390f35b34801561016857600080fd5b506101716105f4565b60405161017e9190610889565b60405180910390f35b34801561019357600080fd5b5061019c6105fd565b6040516101a99190610768565b60405180910390f35b3480156101be57600080fd5b506101c7610623565b6040516101d49190610889565b60405180910390f35b3480156101e957600080fd5b506101f261062f565b6040516101ff9190610889565b60405180910390f35b64012a05f200341461024f576040517f08c379a000000000000000000000000000000000000000000000000000000000815260040161024690610901565b60405180910390fd5b6000339080600181540180825580915050600190039060005260206000200160009091909190916101000a81548173ffffffffffffffffffffffffffffffffffffffff021916908373ffffffffffffffffffffffffffffffffffffffff160217905550565b7f000000000000000000000000000000000000000000000000000000000000000073ffffffffffffffffffffffffffffffffffffffff163373ffffffffffffffffffffffffffffffffffffffff1614610342576040517f08c379a000000000000000000000000000000000000000000000000000000000815260040161033990610993565b60405180910390fd5b6003600080549050101561038b576040517f08c379a000000000000000000000000000000000000000000000000000000000815260040161038290610a25565b60405180910390fd5b6000610395610637565b815481106103a6576103a5610a45565b5b9060005260206000200160009054906101000a900473ffffffffffffffffffffffffffffffffffffffff16600160006101000a81548173ffffffffffffffffffffffffffffffffffffffff021916908373ffffffffffffffffffffffffffffffffffffffff160217905550600160009054906101000a900473ffffffffffffffffffffffffffffffffffffffff1673ffffffffffffffffffffffffffffffffffffffff166108fc61045561062f565b9081150290604051600060405180830381858888f19350505050158015610480573d6000803e3d6000fd5b50600067ffffffffffffffff81111561049c5761049b610a74565b5b6040519080825280602002602001820160405280156104ca5781602001602082028036833780820191505090505b50600090805190602001906104e0929190610680565b50565b7f000000000000000000000000000000000000000000000000000000000000000081565b6000818154811061051757600080fd5b906000526020600020016000915054906101000a900473ffffffffffffffffffffffffffffffffffffffff1681565b600080600090505b6000805490508110156105e9578273ffffffffffffffffffffffffffffffffffffffff166000828154811061058657610585610a45565b5b9060005260206000200160009054906101000a900473ffffffffffffffffffffffffffffffffffffffff1673ffffffffffffffffffffffffffffffffffffffff16036105d65760019150506105ef565b80806105e190610ad2565b91505061054e565b50600090505b919050565b64012a05f20081565b600160009054906101000a900473ffffffffffffffffffffffffffffffffffffffff1681565b60008080549050905090565b600047905090565b60008080549050444260008054905060405160200161065893929190610b3b565b6040516020818303038152906040528051906020012060001c61067b9190610ba7565b905090565b8280548282559060005260206000209081019282156106f9579160200282015b828111156106f85782518260006101000a81548173ffffffffffffffffffffffffffffffffffffffff021916908373ffffffffffffffffffffffffffffffffffffffff160217905550916020019190600101906106a0565b5b509050610706919061070a565b5090565b5b8082111561072357600081600090555060010161070b565b5090565b600073ffffffffffffffffffffffffffffffffffffffff82169050919050565b600061075282610727565b9050919050565b61076281610747565b82525050565b600060208201905061077d6000830184610759565b92915050565b600080fd5b6000819050919050565b61079b81610788565b81146107a657600080fd5b50565b6000813590506107b881610792565b92915050565b6000602082840312156107d4576107d3610783565b5b60006107e2848285016107a9565b91505092915050565b6107f481610747565b81146107ff57600080fd5b50565b600081359050610811816107eb565b92915050565b60006020828403121561082d5761082c610783565b5b600061083b84828501610802565b91505092915050565b60008115159050919050565b61085981610844565b82525050565b60006020820190506108746000830184610850565b92915050565b61088381610788565b82525050565b600060208201905061089e600083018461087a565b92915050565b600082825260208201905092915050565b7f746865207469636b657420707269636520697320352067776569000000000000600082015250565b60006108eb601a836108a4565b91506108f6826108b5565b602082019050919050565b6000602082019050818103600083015261091a816108de565b9050919050565b7f4f6e6c7920746865206d616e616765722063616e206465636c6561722074686560008201527f2077696e6e657200000000000000000000000000000000000000000000000000602082015250565b600061097d6027836108a4565b915061098882610921565b604082019050919050565b600060208201905081810360008301526109ac81610970565b9050919050565b7f5061727469636970616e74732073686f756c642062652067726561746572207460008201527f68656e2033000000000000000000000000000000000000000000000000000000602082015250565b6000610a0f6025836108a4565b9150610a1a826109b3565b604082019050919050565b60006020820190508181036000830152610a3e81610a02565b9050919050565b7f4e487b7100000000000000000000000000000000000000000000000000000000600052603260045260246000fd5b7f4e487b7100000000000000000000000000000000000000000000000000000000600052604160045260246000fd5b7f4e487b7100000000000000000000000000000000000000000000000000000000600052601160045260246000fd5b6000610add82610788565b91507fffffffffffffffffffffffffffffffffffffffffffffffffffffffffffffffff8203610b0f57610b0e610aa3565b5b600182019050919050565b6000819050919050565b610b35610b3082610788565b610b1a565b82525050565b6000610b478286610b24565b602082019150610b578285610b24565b602082019150610b678284610b24565b602082019150819050949350505050565b7f4e487b7100000000000000000000000000000000000000000000000000000000600052601260045260246000fd5b6000610bb282610788565b9150610bbd83610788565b925082610bcd57610bcc610b78565b5b82820690509291505056fea26469706673582212208024985b14a5d41b4d5d541a2283881c02659f25ea1bb101f6cad6f230efe5c264736f6c63430008120033",
  "immutableReferences": {
    "3": [
      {
        "length": 32,
        "start": 694
      },
      {
        "length": 32,
        "start": 1253
      }
    ]
  },
  "source": "// SPDX-License-Identifier: MIT\npragma solidity ^0.8.0;\n\ncontract Lottery2 {\n    address public immutable manager;\n    address[] public persons;\n    address public winner;\n    uint256 public constant lotteryPrice = 5 gwei;\n\n    constructor() {\n        manager = msg.sender;\n    }\n\n    function takeLottery() public payable {\n        require(msg.value == lotteryPrice, \"the ticket price is 5 gwei\");\n        persons.push(payable(msg.sender));\n    }\n\n    function isParticipated(address _person) public view returns (bool) {\n        for (uint i = 0; i < persons.length; i++) {\n            if (persons[i] == _person) {\n                return true;\n            }\n        }\n        return false;\n    }\n\n    function totalPersons() public view returns (uint) {\n        return persons.length;\n    }\n\n    receive() external payable {\n        takeLottery();\n    }\n\n    fallback() external payable {\n        takeLottery();\n    }\n\n    function generateRandom() internal view returns (uint256) {\n        return\n            uint(\n                keccak256(\n                    abi.encodePacked(\n                        block.prevrandao,\n                        block.timestamp,\n                        persons.length\n                    )\n                )\n            ) % persons.length;\n    }\n\n    function getPrizeBalance() public view returns (uint256) {\n        return address(this).balance;\n    }\n\n    function declearWinner() public payable {\n        require(\n            msg.sender == manager,\n            \"Only the manager can declear the winner\"\n        );\n        require(persons.length >= 3, \"Participants should be greater then 3\");\n        winner = persons[generateRandom()];\n        payable(winner).transfer(getPrizeBalance());\n        persons = new address payable[](0);\n    }\n}\n",
  "sourcePath": "/Users/aamir/Documents/vs codes/blockchain development/dapps/lottery/contracts/Lottery2.sol",
  "compiler": {
    "name": "solc",
    "version": "0.8.18+commit.87f61d96.Emscripten.clang"
  },
  "schemaVersion": "3.4.12",
  "updatedAt": "2023-08-19T04:27:48.939Z",
  "networkType": "ethereum",
  "devdoc": {
    "kind": "dev",
    "methods": {},
    "version": 1
  },
  "userdoc": {
    "kind": "user",
    "methods": {},
    "version": 1
  }
}